:020000020000FC
:0200000020C11D
:0200080011C124
:100012000EC1052D0BD0939A1ED0062D07D0919AB2
:100022001AD0072D03D0909A16D008950030B9F057
:100032000130B9F00230B9F00330B9F00430B9F050
:100042000530B9F00630B9F00730B9F00830B9F030
:100052000930B9F00895939891989098089513D023
:10006200089519D008951FD0089525D008952BD052
:10007200089531D0089537D008953DD0089543D0E2
:10008200089549D00895949A959A969A979AC09A03
:10009200AA9AA99808959498959A969A9798C0982A
:1000A200AA98A9980895949A959A9698979AC09A18
:1000B200AA98A99A0895949A959A969A979AC09806
:1000C200AA98A99A08959498959A969A9798C098FA
:1000D200AA9AA99A0895949A9598969A979AC098E6
:1000E200AA9AA99A0895949A9598969A979AC09AD4
:1000F200AA9AA99A0895949A959A969A9798C098C6
:10010200AA98A9980895949A959A969A979AC09AB5
:10011200AA9AA99A0895949A959A969A979AC098A3
:10012200AA9AA99A08957FEF87EE93E0E816F90656
:1001320039F0E394E71609F00895EE24F394089554
:10014200EE24FF24089507E2402E00E1302E14D061
:10015200902E03E0402E08EE302E0ED0802E442446
:1001620004E6302E09D0702E0AE0302E05D0602E23
:1001720000E0010D502E089500E01314240408F449
:100182000895131824080395F8CFF0FF01D01895AD
:10019200F1E0EA940895E0FF01D00895E1E0E394EC
:1001A2000895E0E00895F0E00895B29908958299E3
:1001B200089501D0089511E020E03E2D0CD0E19980
:1001C200FECF12E020E03F2D06D0E199FECF089548
:1001D20094E6E92E0895F894E199FDCF2FBB1EBB5A
:1001E2003DBBE29AE19A78940895F894E199FDCFA3
:1001F2002FBB1EBBE09A3DB37894089511E020E036
:1002020030E0E9DF089512E020E030E0E4DF089515
:10021200A1E0CA2EA0EFBA2EAFEFAA2EAA94F1F750
:10022200BA94D1F7CA94B1F7089500001895F894DA
:100232001E2C2F2C88DFEDDE0CED02BF7894189572
:100242000027EE24FF24DD27EE27FF2704E00EBF60
:100252000FE50DBF01E007BB07E004BB929A0BEF6D
:1002620001BB11E020E0C1DFE32E12E020E0BDDFA0
:10027200F32E0FEFE0120CC0C1DFF01209C0C3DF92
:1002820011E020E0B2DFE32E12E020E0AEDFF32E39
:10029200000004E003BF09E309BF03E005BD09E76D
:1002A20009BF789400C0B29B70DFB2997CDF829B59
:0A02B20072DF829976DF79DFF6CF64
:00000001FF
